:020000040800F2
:100000000000022049220008C1210008C321000885
:10001000C5210008C7210008C92100080000000010
:10002000000000000000000000000000CB210008DC
:10003000CD21000800000000CF210008D1210008D8
:1000400099220008992200089922000899220008A4
:100050009922000899220008992200089922000894
:100060009922000899220008992200089922000884
:100070009922000899220008992200089922000874
:100080009922000899220008992200089922000864
:100090009922000899220008992200089922000854
:1000A000992200089922000899220008DD21000801
:1000B0009922000899220008992200089922000834
:1000C0009922000899220008992200089922000824
:1000D0009922000899220008992200089922000814
:1000E0009922000899220008992200089922000804
:1000F00099220008992200089922000899220008F4
:1001000099220008992200089922000899220008E3
:1001100099220008992200089922000899220008D3
:1001200099220008992200089922000899220008C3
:1001300099220008992200089922000899220008B3
:1001400099220008992200089922000899220008A3
:10015000992200089922000899220008ED21000840
:100160009922000899220008992200089922000883
:100170009922000899220008992200080000000036
:080180009922000899220008F1
:1001900010B5054C237833B9044B13B10448AFF3C1
:1001A00000800123237010BD7000002000000000BB
:1001B000182B000808B5034B1BB103490348AFF3E4
:1001C000008008BD0000000074000020182B00080B
:1001D00053B94AB9002908BF00281CBF4FF0FF31AE
:1001E0004FF0FF3000F072B9ADF1080C6DE904CEAC
:1001F00000F006F8DDF804E0DDE9022304B0704702
:100200002DE9F047089E04468846002B4BD18A42D0
:10021000154667D9B2FA82F24AB1C2F1200701FA53
:1002200002F320FA07F7954047EA030894404FEAA3
:10023000154E230CB8FBFEF71FFA85FC0EFB178842
:1002400043EA084307FB0CF1994209D9EB1807F17F
:10025000FF3080F01B81994240F21881023F2B440D
:100260005B1AA4B2B3FBFEF00EFB103344EA034466
:1002700000FB0CFCA44509D92C1900F1FF3380F0D8
:100280000781A44540F2048102382C4440EA07402B
:10029000A4EB0C0400271EB1D4400023C6E90043A0
:1002A0003946BDE8F0878B4209D9002E00F0EB807B
:1002B0000027C6E9000138463946BDE8F087B3FAA1
:1002C00083F7002F47D18B4202D3824200F2FA809B
:1002D000841A61EB030301209846002EE0D0C6E9A2
:1002E0000048DDE702B9FFDEB2FA82F2002A40F0F0
:1002F0008F80491B4FEA154E1FFA85F80127B1FB85
:10030000FEFC230C0EFB1C1143EA014308FB0CF11D
:10031000994207D9EB180CF1FF3002D2994200F252
:10032000CD808446591AA3B2B1FBFEF00EFB101427
:1003300043EA044408FB00F8A04507D92C1900F152
:10034000FF3302D2A04500F2B6801846A4EB0804A1
:1003500040EA0C409FE7C7F1200CBB4022FA0CFE9C
:100360004EEA030E01FA07F420FA0CF521FA0CF319
:100370004FEA1E482543B3FBF8F92C0C08FB193350
:100380001FFA8EFA44EA034309FB0AF49C4202FA7C
:1003900007F200FA07F10BD91EEB030309F1FF3056
:1003A00080F087809C4240F28480A9F10209734466
:1003B0001B1BADB2B3FBF8F008FB103345EA034456
:1003C00000FB0AFAA24508D91EEB040400F1FF3332
:1003D0006BD2A24569D90238744440EA0940A0FBB7
:1003E0000289A4EB0A044C45C2464B4654D351D073
:1003F000002E69D0B1EB0A0564EB030404FA0CFC8F
:10040000FD40FC404CEA0505C6E90054002747E7DB
:10041000C2F1200320FA03F7954001FA02F021FA15
:1004200003F34FEA154E3843010CB3FBFEF71FFAF6
:1004300085F80EFB173341EA034107FB08F38B42B3
:1004400004FA02F407D9691807F1FF3C2FD28B4256
:100450002DD9023F2944CB1A81B2B3FBFEF00EFB2B
:10046000103341EA034100FB08F38B4207D96918B6
:1004700000F1FF3C17D28B4215D902382944C91A22
:1004800040EA07473BE73746304609E70746E7E6D5
:100490001846FBE64145ABD2B8EB020A69EB0E0207
:1004A00001381346A4E76046E9E7184695E7674632
:1004B000D1E781467CE702382C4447E7ACF1020CD7
:1004C0002B442FE7384608E73746E9E6704700BF78
:1004D00001F0FF01102A2BDB10F0070F08D010F8F5
:1004E000013B013A8B422DD010F0070F42B3F6D1F9
:1004F000F0B441EA012141EA014122F007047FF012
:1005000000070023F0E80256083C85EA010586EA68
:10051000010685FA47F5A3FA87F586FA47F6A5FAA4
:1005200087F68EB9EED1F0BC01F0FF0102F00702B0
:1005300032B110F8013B013A83EA010313B1F8D15B
:100540000020704701387047002D06BF354603383C
:10055000073815F0010F07D1013015F4807F02BF75
:10056000013015F4C03F0130F0BC0138704700BFC6
:1005700010B504460E4B18784FF47A73B3FBF0F3C2
:100580000C4A1068B0FBF3F000F094F868B90F2C37
:1005900001D901200AE0002221464FF0FF3000F08F
:1005A00049F8034B5C60002000E0012010BD00BF53
:1005B000000000200800002008B50B4B1A6842F428
:1005C00000721A601A6842F480621A601A6842F473
:1005D00080721A60032000F01BF80020FFF7C8FFAC
:1005E00001F038FD002008BD003C0240034A1168BC
:1005F000034B1B780B441360704700BFF8000020CA
:1006000000000020014B1868704700BFF800002070
:10061000074AD36823F4E0631B041B0C000200F4B8
:10062000E060184340F0BF6040F40030D060704795
:1006300000ED00E030B4174BDB68C3F30223C3F1D5
:100640000704042C28BF04241D1D062D18D9033BC4
:100650004FF0FF3505FA04F421EA0401994005FA48
:1006600003F322EA0303194300280BDB0901C9B293
:1006700000F1604000F5614080F8001330BC704725
:100680000023E5E700F00F000901C9B2024B19543D
:10069000F4E700BF00ED00E014ED00E000F01F0201
:1006A000400901239340024A42F82030704700BFBE
:1006B00000E100E00138B0F1807F0AD2064B5860BB
:1006C000064AF02182F823100020986007221A6061
:1006D00070470120704700BF10E000E000ED00E02F
:1006E000042805D0054A136823F0040313607047FB
:1006F000024A136843F004031360704710E000E0FF
:10070000704708B5FFF7FCFF08BD90F83530DBB245
:10071000022B03D08023436501207047052380F816
:1007200035300268136823F001031360002070471E
:1007300000230F2B00F2D780F0B482B039E00722FB
:1007400000E00022B2403A430234674E46F82420CB
:10075000664A1468EA4302EA04064F6817F4803FC9
:1007600001D045EA0406614C2660646802EA04068A
:100770004F6817F4003F01D045EA04065B4C666001
:10078000A46802EA04064F6817F4801F01D045EA06
:100790000406564CA660E46822404E6816F4001F1A
:1007A00001D045EA0402514CE26001330F2B00F204
:1007B000978001229A400C6804EA0205AA42F4D10B
:1007C0004C68022C01D0122C10D1DE08083650F8EB
:1007D00026C003F00704A7000F24BC402CEA040C39
:1007E0000C69BC4044EA0C0440F8264004685F00F1
:1007F0000326BE40F64306EA040C4C6804F00304EA
:10080000BC4044EA0C0404604C6804F1FF3CBCF1B9
:10081000010F03D9112C01D0122C10D1846806EAE3
:10082000040CCC68BC4044EA0C048460446824EAAC
:1008300002024C68C4F300149C4014434460C26834
:1008400016408A68BA403243C2604A6812F0805F3C
:10085000ABD000220192264A546C44F48044546484
:10086000526C02F480420192019A9C08A61C1E4A16
:1008700052F8267003F0030296000F22B24027EAD6
:1008800002071C4A90423FF45CAF02F5806290423E
:100890001AD002F58062904218D002F58062904230
:1008A00016D002F58062904214D002F58062904228
:1008B00012D002F58062904210D002F58062904220
:1008C0003FF43DAF08223DE701223BE7022239E732
:1008D000032237E7042235E7052233E7062231E712
:1008E00002B0F0BC7047704700380140003C014046
:1008F00000380240000002400369194201D1002083
:100900007047012070470000002800F0BB8170B5DF
:1009100082B00446036813F0010F3BD0A74B9B68DD
:1009200003F00C03042B2CD0A44B9B6803F00C03A6
:10093000082B21D06368B3F5803F4FD0B3F5A02FCB
:1009400052D09E4B1A6822F480321A601A6822F440
:1009500080221A606368002B50D0FFF753FE0546D3
:10096000964B1B6813F4003F14D1FFF74BFE401B5E
:100970006428F5D903208AE1904B5B6813F4800F5B
:10098000D8D08E4B1B6813F4003F03D06368002B54
:1009900000F07A81236813F0020F55D0874B9B68D3
:1009A00013F00C0F3ED0854B9B6803F00C03082B13
:1009B00033D0E368002B68D0814B01221A60FFF727
:1009C00021FE05467D4B1B6813F0020F54D1FFF743
:1009D00019FE401B0228F5D9032058E1774A136815
:1009E00043F480331360B5E7744B1A6842F48022F5
:1009F0001A601A6842F480321A60ABE7FFF702FE11
:100A000005466E4B1B6813F4003FC3D0FFF7FAFD99
:100A1000401B6428F5D9032039E1684B5B6813F467
:100A2000800FC6D1654B1B6813F0020F04D0E3683A
:100A3000012B01D001202AE1604A136823F0F8035A
:100A4000216943EAC1031360236813F0080F40D003
:100A5000636963B35B4B01221A60FFF7D3FD054660
:100A6000564B5B6F13F0020F33D1FFF7CBFD401BEA
:100A70000228F5D903200AE1504A136823F0F8034D
:100A8000216943EAC1031360DEE74D4B00221A607F
:100A9000FFF7B8FD0546494B1B6813F0020FD3D092
:100AA000FFF7B0FD401B0228F5D90320EFE0454BCE
:100AB00000221A60FFF7A6FD0546404B5B6F13F05E
:100AC000020F06D0FFF79EFD401B0228F5D9032038
:100AD000DDE0236813F0040F79D0384B1B6C13F062
:100AE000805F33D100230193344B1A6C42F0805263
:100AF0001A641B6C03F080530193019B0125324B58
:100B00001B6813F4807F23D0A368012B34D0052BFE
:100B100038D02A4B1A6F22F001021A671A6F22F09E
:100B200004021A67A368002B36D0FFF76BFD064658
:100B3000224B1B6F13F0020F48D1FFF763FD801BA0
:100B400041F288339842F3D90320A0E00025D6E78C
:100B50001D4A136843F480731360FFF753FD064684
:100B6000194B1B6813F4807FCED1FFF74BFD801B20
:100B70000228F5D903208AE0104A136F43F00103DD
:100B80001367CFE70D4B1A6F42F004021A671A6F12
:100B900042F001021A67C5E7FFF734FD0646074B2E
:100BA0001B6F13F0020F11D0FFF72CFD801B41F2D9
:100BB00088339842F3D9032069E000BF003802402F
:100BC00000004742800E474200700040E5B9A3692B
:100BD000002B5BD0304A926802F00C02082A58D0F1
:100BE000022B17D02D4B00221A60FFF70BFD044695
:100BF000294B1B6813F0007F42D0FFF703FD001B59
:100C00000228F5D9032042E0234A136C23F08053D5
:100C10001364DCE7214B00221A60FFF7F3FC054662
:100C20001D4B1B6813F0007F06D0FFF7EBFC401B49
:100C30000228F5D903202AE0E369226A1343626A95
:100C400043EA8213A26A5208013A43EA0243E26A83
:100C500043EA0263104A5360104B01221A60FFF707
:100C6000D1FC04460C4B1B6813F0007F06D1FFF744
:100C7000C9FC001B0228F5D9032008E0002006E08B
:100C8000002004E001207047012000E0002002B0B5
:100C900070BD0120FBE700BF003802406000474202
:100CA000324B9B6803F00C03042B5CD0082B01D063
:100CB0002F4870472DE9F04B2C4B5A6802F03F0249
:100CC0005B6813F4800F2BD0284B5B68C3F3881349
:100CD0001E4600275C010025E41A65EB0705A90103
:100CE00041EA9461A001001B61EB0501CB0043EADE
:100CF0005073C400A01943EB07014B0243EAD053E1
:100D00004402204619460023FFF762FA174B5B683E
:100D1000C3F3014301335B00B0FBF3F0BDE8F08B9C
:100D2000124B5B68C3F388131E4600275C01002545
:100D3000E41A65EB0705A90141EA9461A001001BD3
:100D400061EB0501CB0043EA5073C400A01943EBEB
:100D500007018B0243EA9053840220461946002380
:100D6000FFF736FAD2E70348704700BF0038024069
:100D70000024F40000127A00002800F09D8070B575
:100D800004464F4B1B6803F00F038B4209D2CBB2D2
:100D90004B4A1370136803F00F038B4201D00120FC
:100DA00070BD236813F0020F17D013F0040F04D0A6
:100DB000444A936843F4E0539360236813F0080FA8
:100DC00004D0404A936843F4604393603D4A93687B
:100DD00023F0F003A068034393600D46236813F0EB
:100DE000010F32D06368012B21D09A1E012A25D928
:100DF000344A126812F0020F60D032498A6822F039
:100E0000030213438B60FFF7FDFB06462D4B9B68E7
:100E100003F00C036268B3EB820F16D0FFF7F2FB0E
:100E2000801B41F288339842F0D90320B8E7254A65
:100E3000126812F4003FE0D10120B1E7214A1268A4
:100E400012F0007FD9D10120AAE71D4B1B6803F0E7
:100E50000F03AB4209D9EAB2194B1A701B6803F0B1
:100E60000F03AB4201D001209AE7236813F0040F6F
:100E700006D0144A936823F4E053E1680B4393606F
:100E8000236813F0080F07D00E4A936823F46043D9
:100E9000216943EAC1039360FFF702FF094B9B6896
:100EA000C3F30313084AD35CD840084B18600020F2
:100EB000FFF75EFB002073E70120704701206FE71A
:100EC000003C024000380240302B0008080000209F
:100ED000014B1868704700BF0800002008B5FFF7F5
:100EE000F7FF044B9B68C3F38223034AD35CD840CB
:100EF00008BD00BF00380240402B000808B5FFF7CE
:100F0000E7FF044B9B68C3F34233034AD35CD840EA
:100F100008BD00BF00380240402B000870B4036ACF
:100F200023F001030362036A4268846924F07304B6
:100F30000D6845EA040623F002048B6823430C4D38
:100F4000A84202D00B4CA0420BD123F00803CD687D
:100F50002B4323F0040322F440724D6915438A6940
:100F60002A43426086614A684263036270BC7047EC
:100F7000000001400004014030B4036A23F4807390
:100F80000362036A4268C46924F073040D682C4349
:100F900023F400738D6843EA05230E4DA84203D065
:100FA00005F58065A8420ED123F40063CD6843EABD
:100FB000052323F4806322F440524D6942EA05126E
:100FC0008D6942EA05124260C4614A68C2630362E5
:100FD00030BC70470000014030B4036A23F48053F2
:100FE0000362036A4468C26922F4E6420D6842EA79
:100FF000052223F400538D6843EA0533094DA842C6
:1010000003D005F58065A84204D124F480444D69DD
:1010100044EA85144460C2614A680264036230BCD9
:10102000704700BF0000014010B4036A046A24F056
:1010300001040462846924F0F00444EA021223F0FB
:101040000A030B43826103625DF8044B704710B4DE
:10105000036A23F0100303628469036A24F4704472
:1010600044EA023223F0A00343EA011382610362DF
:101070005DF8044B7047836823F0700341F007016B
:1010800019438160704710B4846824F47F4442EAB5
:1010900003230B43234383605DF8044B7047704781
:1010A00090F83830012B7DD010B50446012380F82C
:1010B0003830022380F839300268936823F47F4384
:1010C00023F0770393600B68402B57D010D9702B17
:1010D0003ED01FD8502B47D0602B32D1CA68496808
:1010E0000068FFF7B4FF60212068FFF7C4FF28E025
:1010F000102B4DD008D9202B4FD0302B21D13021AF
:101100000068FFF7B8FF1CE0DBB900210068FFF7BB
:10111000B2FF16E0B3F5805F0ED0B3F5005F10D1DB
:10112000CB684A6889680068FFF7ADFF226893685A
:1011300043F48043936004E00268936823F007035C
:101140009360012384F83930002084F8380010BD02
:10115000CB684A6889680068FFF795FF2268936842
:1011600043F077039360ECE7CA6849680068FFF7CB
:101170005BFF50212068FFF77EFFE2E7CA684968FD
:101180000068FFF751FF40212068FFF774FFD8E7A0
:1011900010210068FFF76FFFD3E720210068FFF7F9
:1011A0006AFFCEE70220704770477047704770476C
:1011B00010B5044603681A6912F0020F11D0DA68FC
:1011C00012F0020F0DD06FF002021A6101230376B4
:1011D00003689B6913F0030F70D0FFF7E7FF00234C
:1011E000237623681A6912F0040F12D0DA6812F01D
:1011F000040F0ED06FF004021A61022323762368D5
:101200009B6913F4407F5FD02046FFF7CFFF002398
:10121000237623681A6912F0080F12D0DA6812F0E8
:10122000080F0ED06FF008021A610423237623689A
:10123000DB6913F0030F4ED02046FFF7B7FF002302
:10124000237623681A6912F0100F12D0DA6812F0B0
:10125000100F0ED06FF010021A6108232376236856
:10126000DB6913F4407F3DD02046FFF79FFF00234A
:10127000237623681A6912F0010F03D0DA6812F09E
:10128000010F36D123681A6912F0800F03D0DA6893
:1012900012F0800F34D123681A6912F0400F03D086
:1012A000DA6812F0400F32D123681A6912F0200F69
:1012B00003D0DA6812F0200F30D110BDFFF775FFB0
:1012C000204600F05DFD8AE72046FFF76EFF2046CE
:1012D00000F056FD9BE72046FFF767FF204600F031
:1012E0004FFDACE72046FFF760FF204600F048FDC9
:1012F000BDE76FF001021A612046FFF755FFC1E715
:101300006FF080021A61204600F0E6F9C3E76FF043
:1013100040021A612046FFF74AFFC5E76FF020023E
:101320001A61204600F0D7F9C7E7000003682E4A8B
:10133000904212D0B0F1804F0FD0A2F57C42904283
:101340000BD002F58062904207D002F58062904295
:1013500003D002F57842904203D123F070034A682B
:101360001343214A90422AD0B0F1804F27D0A2F5F2
:101370007C42904223D002F5806290421FD002F559
:10138000806290421BD002F57842904217D002F55D
:101390007052904213D002F5806290420FD002F555
:1013A000806290420BD0A2F59832904207D002F5AD
:1013B0008062904203D002F58062904203D123F410
:1013C0004073CA68134303608B68C3620B6883620F
:1013D000054B984203D003F58063984201D10B6915
:1013E000036301234361704700000140A8B110B5B9
:1013F000044690F839305BB1022384F83930211D5E
:101400002068FFF793FF012384F83930002010BDD6
:1014100080F8383000F068FEEEE701207047A8B190
:1014200010B5044690F839305BB1022384F83930A6
:10143000211D2068FFF77AFF012384F8393000204E
:1014400010BD80F83830FFF72AFEEEE70120704724
:1014500030B4036A23F010030362036A44688269AC
:1014600022F4E6420D6842EA052223F020038D684B
:1014700043EA05130E4DA84203D005F58065A84246
:101480000ED123F08003CD6843EA051323F0400317
:1014900024F440644D6944EA85048D6944EA850476
:1014A000446082614A688263036230BC704700BF57
:1014B0000000014038B590F83830012B66D00D4659
:1014C0000446012380F83830022380F839300C2A92
:1014D0001AD8DFE802F00719191920191919341957
:1014E000191947000068FFF719FD2268936943F056
:1014F000080393612268936923F0040393612268CF
:10150000936929690B439361012384F839300020E2
:1015100084F8380038BD0068FFF79AFF22689369A5
:1015200043F4006393612268936923F480639361B9
:1015300022689369296943EA01239361E4E700681B
:10154000FFF71AFD2268D36943F00803D3612268CC
:10155000D36923F00403D3612268D36929690B435B
:10156000D361D1E70068FFF737FD2268D36943F400
:101570000063D3612268D36923F48063D361226856
:10158000D369296943EA0123D361BDE70220C1E79A
:1015900010B4012303FA01F4036A23EA040303628B
:1015A000036A8A40134303625DF8044B70470000EE
:1015B00010B504460C290DD8DFE801F0070C0C0C1F
:1015C000230C0C0C290C0C0C2F000268D36843F080
:1015D0000203D36001222068FFF7DAFF2368124A72
:1015E000934203D002F58062934203D15A6C42F4D5
:1015F00000425A642268136843F00103136000201C
:1016000010BD0268D36843F00403D360E2E70268C8
:10161000D36843F00803D360DCE70268D36843F083
:101620001003D360D6E700BF0000014090F83830C7
:10163000012B22D030B4012280F83820022380F818
:1016400039300468636823F070036360046863687A
:101650000D682B4363600468A36823F08003A360D4
:101660000468A36849680B43A36080F8392000230D
:1016700080F83830184630BC70470220704790F828
:101680003830012B25D0012380F83830CB6823F483
:1016900040738A68134323F480634A68134323F436
:1016A00000630A68134323F480530A69134323F445
:1016B00000534A69134323F480438A69134323F494
:1016C0000043134302685364002380F838301846FF
:1016D000704702207047704770470268D36823F450
:1016E0009073D3600268536923F001035361202390
:1016F00080F83A30704790F83930DBB2212B2AD18C
:101700008368B3F5805F16D0036A5A1C02621A78A8
:1017100003685A60C38C013B9BB2C384EBB9026877
:10172000D36823F08003D3600268D36843F040039A
:10173000D36000207047036A1B880268C3F3080364
:10174000536003691BB9036A02330362E2E7036A69
:1017500001330362DEE7022070470020704700007B
:101760002DE9F843044601680A6922F44052C3682F
:1017700013430B610168CA6822F4164222F00C027E
:1017800083680069034360690343E06903431343CB
:10179000CB6021684A6922F44072A36913434B610C
:1017A000E369B3F5004F60D02368B84A934200F074
:1017B000148102F58062934200F00F81FFF78EFBE7
:1017C00000EB800000EB80006568AD00B0FBF5F534
:1017D000AF4FA7FB05356D092E01FFF77FFB00EB2F
:1017E000800000EB80006568AD00B0FBF5F9FFF705
:1017F00075FB00EB800000EB80006568AD00B0FB7E
:10180000F5F5A7FB05356D094FF0640808FB159544
:101810002D013235A7FB05356D0905F0F00535447E
:10182000FFF75CFB00EB800000EB80006668B60011
:10183000B0FBF6F6FFF752FB00EB800000EB8000F8
:1018400063689B00B0FBF3F0A7FB0030400908FB86
:1018500010684FEA081808F13208A7FB0837C7F3E9
:10186000431723682F449F600DE12368874A934202
:101870005BD002F58062934257D0FFF72FFB00EB5D
:10188000800000EB800065686D00B0FBF5F5804FCF
:10189000A7FB05356D092E01FFF720FB00EB80004B
:1018A00000EB800065686D00B0FBF5F9FFF716FBF3
:1018B00000EB800000EB800065686D00B0FBF5F583
:1018C000A7FB05356D094FF0640808FB1595ED0081
:1018D0003235A7FB05356D096D0005F4F875354403
:1018E000FFF7FCFA00EB800000EB800066687600F2
:1018F000B0FBF6F6FFF7F2FA00EB800000EB800099
:1019000063685B00B0FBF3F3A7FB03235B0908FBF1
:1019100013684FEAC80808F13208A7FB0837C7F375
:10192000421723682F449F60ADE0FFF7E7FA00EB12
:10193000800000EB800065686D00B0FBF5F5544F4A
:10194000A7FB05356D092E01FFF7D8FA00EB8000E3
:1019500000EB800065686D00B0FBF5F9FFF7CEFA8B
:1019600000EB800000EB800065686D00B0FBF5F5D2
:10197000A7FB05356D094FF0640808FB1595ED00D0
:101980003235A7FB05356D096D0005F4F875354452
:10199000FFF7B4FA00EB800000EB80006668760089
:1019A000B0FBF6F6FFF7AAFA00EB800000EB800030
:1019B00063685B00B0FBF3F3A7FB03235B0908FB41
:1019C00013684FEAC80808F13208A7FB0837C7F3C5
:1019D000421723682F449F6055E0FFF78FFA00EB12
:1019E000800000EB80006568AD00B0FBF5F5284F86
:1019F000A7FB05356D092E01FFF780FA00EB80008B
:101A000000EB80006568AD00B0FBF5F9FFF776FAF2
:101A100000EB800000EB80006568AD00B0FBF5F5E1
:101A2000A7FB05356D094FF0640808FB15952D01DE
:101A30003235A7FB05356D0905F0F0053544FFF794
:101A40005DFA00EB800000EB80006668B600B0FB3A
:101A5000F6F6FFF753FA00EB800000EB80006368B6
:101A60009B00B0FBF3F0A7FB0030400908FB1068B7
:101A70004FEA081808F13208A7FB0837C7F34317E5
:101A800023682F449F60BDE8F88300BF0010014029
:101A90001F85EB5158B310B5044690F839300BB39D
:101AA000242384F839302268D36823F40053D360A8
:101AB0002046FFF755FE2268136923F49043136113
:101AC0002268536923F02A0353612268D36843F4E0
:101AD0000053D3600020E063202384F8393084F879
:101AE0003A3010BD80F8383000F03AFBD8E70120DA
:101AF000704790F83930DBB2202B16D1B9B1C2B1A2
:101B000090F83830012B16D001628284C284002301
:101B1000C363212280F8392080F838300168CA6810
:101B200042F08002CA6018467047022070470120C8
:101B300070470120704702207047704708B5016860
:101B4000CB6823F04003CB60202380F83930FFF7C7
:101B5000F4FF002008BD704708B590F83A30DBB2BA
:101B6000222B40D18368B3F5805F0ED0036903BB9D
:101B700003685A68836A591C81621A70C38D013BDD
:101B80009BB2C385F3B100202EE0826A036943B99A
:101B900003685B68C3F308031380836A02338362BC
:101BA000ECE703685B68DBB21380836A013383620E
:101BB000E4E703685B68826A511C816203F07F037B
:101BC0001370DBE70268D36823F49073D360026874
:101BD000536923F001035361202380F83A30FFF763
:101BE000BAFF002000E0022008BD704710B504468F
:101BF00002681368D168526913F00F0005D113F021
:101C0000200F02D011F0200F53D1002867D012F01E
:101C1000010202D111F4907F61D013F0010F06D0C0
:101C200011F4807F03D0E06B40F00100E06313F01B
:101C3000040F04D01AB1E06B40F00200E06313F02F
:101C4000020F04D01AB1E06B40F00400E06313F01F
:101C5000080F04D01AB1E26B42F00802E263E26BB3
:101C6000002A48D013F0200F02D011F0200F24D109
:101C700023685B6903F04003E26B12F0080F00D1A8
:101C80003BB32046FFF729FD23685A6912F0400F45
:101C90001BD05A6922F040025A61636B8BB11A4A19
:101CA0001A65606BFEF731FD28B3606B036D9847D2
:101CB00021E02046FFF750FF1DE02046FFF74CFFD4
:101CC000D6E72046FFF791FF15E02046FFF78DFF8E
:101CD00011E02046FFF789FF0023E3630BE013F0D8
:101CE000800F02D011F0800F06D113F0400F02D008
:101CF00011F0400F04D110BD2046FFF7FCFCFAE7BD
:101D00002046FFF71BFFF6E70D1D000808B5806BA6
:101D10000023C385C384FFF768FF08BD00B589B001
:101D200000220092144B196B41F080011963196B6A
:101D300001F08001009100990192196B41F00401BA
:101D40001963196B01F00401019101990292196B59
:101D500041F0100119631B6B03F010030293029B07
:101D60001023039304920123059303A90348FEF76C
:101D7000DFFC09B05DF804FB0038024000080240B7
:101D800010B58EB004463222002101A800F0AAFA54
:101D900022682B4B9A4201D00EB010BD1021294869
:101DA000FEF7AAFD0446284B1B68012B15D0264BD5
:101DB000DB69FF2B38D00133234AD361224BDB6927
:101DC000802B35D0204B1A6A596911445961586AE1
:101DD00002441A6220445862DEE71B4B59689A6835
:101DE0008A1A9960D8681969411A59601861586946
:101DF0009969411AD96098611212B2F5803F10D0EA
:101E000092B2124901A800F075FA82B201A91048F5
:101E1000FFF76FFE0C4B00221A60094B1F229A62DB
:101E2000C5E74FF6FF72EBE7074B0022DA61C5E723
:101E3000054B01221A60024B40F2BB229A62C1E7B5
:101E400000000140000802408C000020482B0008E0
:101E500038010020FEE7000008B50B480B4B03607B
:101E60004FF46123436000238360C36003610C224D
:101E700042618361C361FFF70DFE00B908BD40F206
:101E800013110348FFF7E6FF38010020001401405A
:101E9000502B000800B595B03148324B03601F232A
:101EA0004360002383600922C26003614361FFF73E
:101EB0009DFA00283CD114A94FF4805341F8103DFD
:101EC0002748FFF7EDF8002836D12548FFF7A7FA95
:101ED000002835D100230E930F930EA92048FFF759
:101EE000A5FB002830D1702307930123089300221B
:101EF00009920A9204230B930C920D9207A9184899
:101F0000FFF7D8FA20BB00230093019302930393B9
:101F100004934FF400520592069369461048FFF768
:101F2000AEFBC8B90E4800F0FFF815B05DF804FB31
:101F3000D4210D48FFF78EFFDA210B48FFF78AFF07
:101F4000DF210948FFF786FFE6210748FFF782FFF8
:101F5000F2210548FFF77EFFFE210348FFF77AFFD5
:101F6000FC00002000000140502B000800B595B097
:101F7000002101912A4B1A6C42F080521A641B6CAA
:101F800003F080530193019B0291264B1A6842F49F
:101F900080421A601B6803F480430293029B012372
:101FA00008934FF48033099302220E924FF480037A
:101FB0000F9304231093A82111911292139308A850
:101FC000FEF7A2FC20BB0F230393022304930023FC
:101FD00005934FF4A05306934FF4805307930521C4
:101FE00003A8FEF7C9FEB8B9FEF772FF0E4BA3FBBC
:101FF00000308009FEF75EFB0420FEF771FB002233
:1020000011464FF0FF30FEF715FB15B05DF804FBED
:10201000A6210648FFF71EFFB4210448FFF71AFF68
:102020000038024000700040D34D6210502B000871
:1020300008B5FEF7C1FAFFF799FFFFF76FFEFFF74C
:102040000BFFFFF727FF00210148FFF7B1FAFEE77A
:10205000FC00002010B582B000240094214B5A6C83
:1020600042F480425A645A6C02F480420092009A10
:1020700001941A6C42F080521A641B6C03F0805376
:102080000193019B0320FEF7C3FA224621466FF01D
:102090000B00FEF7CFFA224621466FF00A00FEF74A
:1020A000C9FA224621466FF00900FEF7C3FA22461C
:1020B00021466FF00400FEF7BDFA224621466FF07C
:1020C0000300FEF7B7FA224621466FF00100FEF743
:1020D000B1FA224621464FF0FF30FEF7ABFA02B0CC
:1020E00010BD00BF0038024002680E4B9A4200D07B
:1020F000704700B583B00021019103F59C335A6C01
:1021000042F001025A645B6C03F001030193019BEE
:102110000A461B20FEF78EFA1B20FEF7BFFA03B01B
:102120005DF804FB0000014002680B4B9A4200D0AE
:10213000704700B587B04FF40073019302230293F8
:102140000123039303220492059301A90348FEF798
:10215000EFFA07B05DF804FB0000014000100240F8
:102160000268154B9A4200D0704710B586B0002423
:10217000009403F592335A6C42F020025A645B6C6F
:1021800003F020030093009BC023019302230293DA
:1021900001230393032304930823059301A907480C
:1021A000FEF7C6FA224621464720FEF743FA4720AB
:1021B000FEF774FA06B010BD00140140000802409A
:1021C0007047FEE7FEE7FEE7FEE77047704770479F
:1021D00008B5FEF70BFAFEF794FA08BD08B50248F9
:1021E000FEF7E6FF08BD00BFFC00002008B502486E
:1021F000FFF7FCFC08BD00BF380100200F49D1F8F3
:10220000883043F47003C1F888300D4B1A6842F0EF
:1022100001021A60002098601A6822F0847222F489
:1022200080321A60074A5A601A6822F480221A60C3
:10223000D8604FF000638B60704700BF00ED00E096
:102240000038024010300024DFF834D0002103E0D1
:102250000C4B5B58435004310B480C4B42189A42CC
:10226000F6D30B4A02E0002342F8043B094B9A42A2
:10227000F9D3FFF7C3FF00F011F8FFF7D9FE70475D
:1022800000000220A42B00080000002070000020A5
:10229000700000207C010020FEE7000070B50D4EAC
:1022A0000D4CA41BA4100025A54209D10B4E0C4CCB
:1022B00000F032FCA41BA4100025A54205D170BD7E
:1022C00056F8253098470135EEE756F825309847FF
:1022D0000135F2E79C2B00089C2B00089C2B000882
:1022E000A02B000802440346934200D1704703F834
:1022F000011BF9E70EB400B59CB01DAB029006902F
:102300006FF00041094807910491094953F8042BE3
:1023100005910068019302A900F066F8029B002273
:102320001A701CB05DF804EB03B070470C0000207D
:102330000802FFFF2DE9F0478E689E4282460C4658
:102340009046994637D88A8912F4906F31D0256823
:1023500009696F1A6569022305EB450595FBF3F5DD
:1023600009F101033B449D4238BF1D46530530D55A
:10237000294600F029FB064650B90C23CAF8003064
:10238000A38943F04003A3814FF0FF30BDE8F087FD
:102390003A46216900F0A6FAA38923F4906343F03A
:1023A0008003A381266165613E44ED1B2660A56024
:1023B0004E464E4500D94E4632464146206800F012
:1023C0009CFAA3689B1BA36023681E442660002020
:1023D000DCE72A4600F052FB06460028E2D12169DC
:1023E000504600F0A3FAC8E72DE9F04F9DB08046B3
:1023F00003938B891D060C4616460FD50B696BB9E6
:10240000402100F0E1FA2060206128B90C23C8F8CF
:1024100000304FF0FF30C7E0402363610023099391
:1024200020238DF8293030238DF82A304FF0010B0E
:1024300037463D4615F8013B0BB1252B3ED1B7EB96
:10244000060A0BD05346324621464046FFF772FF3C
:10245000013000F0A480099B534409933B78002B82
:1024600000F09D8000234FF0FF32CDE90523049357
:1024700007938DF853301A932F46052217F8011B46
:102480004F48FEF725F8049BD0B9D90644BF202257
:102490008DF853201A0744BF2B228DF853202A7839
:1024A0002A2A15D0079A2F4600200A25394611F806
:1024B000013B303B092B4DD9B8B10FE02F46B8E7AF
:1024C0003F4A801A0BFA00F0184304903D46D3E7C8
:1024D000039A111D12680391002A01DB079204E0A0
:1024E000524243F00203079204933B782E2B0CD107
:1024F0007B782A2B33D1039B1A1D1B680392002B78
:10250000B8BF4FF0FF33023705932E4D39780322C1
:102510002846FDF7DDFF38B14023401B03FA00F0E9
:10252000049B034301370493397827488DF828101A
:1025300006227E1CFDF7CCFF002838D0234B13BBAE
:10254000039B073323F0070308330393099B4B4492
:1025500009936DE705FB023201200F46A6E7002331
:102560000137059319460A25384610F8012B303AF1
:10257000092A03D9002BC8D00591C6E705FB012124
:1025800001230746F0E703AB00932246104B04A952
:102590004046AFF30080B0F1FF3F8146D6D1A3891A
:1025A0005B063FF536AF09981DB0BDE8F08F03AB71
:1025B00000932246064B04A9404600F081F8EAE762
:1025C000602B0008662B00086A2B00080000000042
:1025D000352300082DE9F04791461F468A680B69AC
:1025E000DDF820809342B8BF1346C9F8003091F857
:1025F000432006460C4612B10133C9F80030236867
:10260000990642BFD9F800300233C9F80030256876
:1026100015F0060507D104F1190AE368D9F800207E
:102620009B1AAB4228DC94F843302268003318BF71
:10263000012392062DD404F1430239463046C047A7
:10264000013020D02368E568D9F8002003F00603A4
:10265000042B08BFAD1AA36822690CBF25EAE575F3
:1026600000259342C4BF9B1AED184FF000091A349D
:102670004D451AD1002008E0012352463946304624
:10268000C047013003D14FF0FF30BDE8F08701357E
:10269000C3E7E1185A1C302081F84300224494F823
:1026A000451082F843100233C5E70123224639461C
:1026B0003046C0470130E6D009F10109D8E70000F3
:1026C0002DE9F04301F1430C0C46097E85B06E29DB
:1026D0001746064698460C9A00F0B38022D8632924
:1026E00036D00AD8002900F0B980582900F083803C
:1026F00004F1420584F8421032E0642901D06929CE
:10270000F6D120681368050603F104012AD51B6879
:102710001160002B03DA2D225B4284F843206F48BE
:102720000A2239E0732900F09D8008D86F2920D053
:102730007029DDD1236843F02003236003E075296D
:1027400017D07829D4D1782384F84530644855E0EF
:102750001368191D1B68116004F1420584F84230AA
:1027600001238CE01B68116010F0400F18BF1BB2F2
:10277000CFE713682568181D1060280601D51B686F
:1027800002E06806FBD51B8854486F2914BF0A2253
:102790000822002184F843106568A560002DC0F26E
:1027A0009580216821F004012160002B3DD1002D8E
:1027B00040F08E806546082A0BD12368DB0708D5D8
:1027C000236962689A42DEBF302305F8013C05F1B7
:1027D000FF35ACEB05032361CDF800803B4603AA2F
:1027E00021463046FFF7F6FE01304DD14FF0FF3065
:1027F00005B0BDE8F083394884F8451013682168B6
:102800001D1D1B6815600A060BD5CA0744BF41F0A1
:10281000200121601BB9226822F0200222601022D0
:10282000B7E74D0648BF9BB2EFE76546B3FBF2F151
:1028300002FB1133C35C05F8013D0B460029F5D1BD
:10284000B9E7136825686169181D106028061B68C0
:1028500001D5196002E06A06FBD5198000232361C7
:102860006546B9E71368191D11601D68626800218B
:102870002846FDF72DFE08B1401B606063682361A8
:10288000002384F84330A7E723692A4639463046B7
:10289000C0470130AAD023689B0713D4E068039B8C
:1028A0009842B8BF1846A3E701234A463946304646
:1028B000C04701309AD00135E368039A9B1AAB42B6
:1028C000F2DCEBE7002504F11909F5E7002BACD1A8
:1028D000037884F8423004F142056CE7712B00085C
:1028E000822B000810B5431E0A44914200D110BD4E
:1028F00011F8014B03F8014FF7E7884210B501EBDF
:10290000020307D8421E99420AD011F8014B02F87F
:10291000014FF8E78342F5D98118D21AD34200D18A
:1029200010BD13F8014D01F8014DF7E738B5054624
:10293000002945D051F8043C0C1F002BB8BFE41807
:1029400000F0D2F81F4A1368104633B96360146070
:102950002846BDE8384000F0C8B8A3420CD9216829
:102960006218934204BF1A685B68636004BF521820
:1029700022600460ECE713465A680AB1A242FAD911
:1029800019685818A0420BD1206801445818824297
:102990001960DDD1106852685A6001441960D7E7A8
:1029A00002D90C232B60D3E7206821188A4204BF88
:1029B00011685268626004BF091821605C60C7E753
:1029C00038BD00BFEC00002070B5CD1C25F003051C
:1029D00008350C2D38BF0C25002D064601DBA94219
:1029E00003D90C233360002070BD00F07DF8214A2C
:1029F0001468214691B9204C23681BB9304600F079
:102A000063F820602946304600F05EF8431C24D16C
:102A10000C233360304600F068F8E4E70B685B1B7A
:102A200018D40B2B0FD90B60CD50CC18304600F0CA
:102A30005CF804F10B00231D20F00700C31AD3D06B
:102A40005A42E250D0E78C424B6816BF6360136075
:102A50000C46EBE70C464968CCE7C41C24F00304A1
:102A6000A04205D0211A304600F02EF80130CFD018
:102A70002560DBE7EC000020F0000020F8B50746F9
:102A800014460E4621B91146BDE8F840FFF79CBF39
:102A900022B9FFF74BFF25462846F8BD00F026F87F
:102AA000A0420FD221463846FFF78EFF0546002888
:102AB000F2D031462246FFF715FF31463846FFF780
:102AC00035FFE9E73546E7E738B5064C002305460C
:102AD0000846236000F012F8431C02D1236803B1BA
:102AE0002B6038BD780100207047704751F8043CD6
:102AF000181F002BBCBF0B58C0187047044A05496B
:102B00001368002B08BF0B46184410601846704726
:102B1000F400002080010020F8B500BFF8BC08BC1C
:102B20009E467047F8B500BFF8BC08BC9E4670478B
:102B3000000000000000000001020304060708096D
:102B4000000000000102030425640A0D00000000DB
:102B50002E2E2F5372632F6D61696E2E630000005D
:102B6000232D302B2000686C4C0065666745464776
:102B700000303132333435363738394142434445F9
:102B80004600303132333435363738396162636468
:042B90006566000076
:082B94006CD6FF7F0100000078
:042B9C00B501000877
:042BA0009101000897
:102BA40001000000100000000024F40010000020C8
:102BB4000000000000000000000000000000000011
:102BC4000000000000000000000000000000000001
:102BD40000000000000000000000000000000000F1
:102BE40000000000000000000000000000000000E1
:102BF40000000000000000000000000000000000D1
:102C040000000000000000000000000000000000C0
:040000050800224984
:00000001FF
